{
  "contractName": "covidVaccineRegister",
  "abi": [
    {
      "constant": true,
      "inputs": [
        {
          "internalType": "uint256",
          "name": "",
          "type": "uint256"
        }
      ],
      "name": "vaccinationRecords",
      "outputs": [
        {
          "internalType": "string",
          "name": "name",
          "type": "string"
        },
        {
          "internalType": "string",
          "name": "surname",
          "type": "string"
        },
        {
          "internalType": "string",
          "name": "vaccinationDate",
          "type": "string"
        },
        {
          "internalType": "string",
          "name": "vaccinationName",
          "type": "string"
        },
        {
          "internalType": "string",
          "name": "vaccinationPlace",
          "type": "string"
        },
        {
          "internalType": "address",
          "name": "added_by",
          "type": "address"
        }
      ],
      "payable": false,
      "stateMutability": "view",
      "type": "function"
    },
    {
      "constant": false,
      "inputs": [
        {
          "internalType": "string",
          "name": "_name",
          "type": "string"
        },
        {
          "internalType": "string",
          "name": "_surname",
          "type": "string"
        },
        {
          "internalType": "string",
          "name": "_vaccinationDate",
          "type": "string"
        },
        {
          "internalType": "string",
          "name": "_vaccinationName",
          "type": "string"
        },
        {
          "internalType": "string",
          "name": "_vaccinationPlace",
          "type": "string"
        }
      ],
      "name": "createVaccinationRecord",
      "outputs": [
        {
          "internalType": "uint256",
          "name": "",
          "type": "uint256"
        }
      ],
      "payable": false,
      "stateMutability": "nonpayable",
      "type": "function"
    },
    {
      "constant": true,
      "inputs": [],
      "name": "getNumberOfVaccinations",
      "outputs": [
        {
          "internalType": "uint256",
          "name": "",
          "type": "uint256"
        }
      ],
      "payable": false,
      "stateMutability": "view",
      "type": "function"
    },
    {
      "constant": true,
      "inputs": [
        {
          "internalType": "uint256",
          "name": "index",
          "type": "uint256"
        }
      ],
      "name": "getVaccinationRecord",
      "outputs": [
        {
          "components": [
            {
              "internalType": "string",
              "name": "name",
              "type": "string"
            },
            {
              "internalType": "string",
              "name": "surname",
              "type": "string"
            },
            {
              "internalType": "string",
              "name": "vaccinationDate",
              "type": "string"
            },
            {
              "internalType": "string",
              "name": "vaccinationName",
              "type": "string"
            },
            {
              "internalType": "string",
              "name": "vaccinationPlace",
              "type": "string"
            },
            {
              "internalType": "address",
              "name": "added_by",
              "type": "address"
            }
          ],
          "internalType": "struct covidVaccineRegister.VaccinationRecord",
          "name": "",
          "type": "tuple"
        }
      ],
      "payable": false,
      "stateMutability": "view",
      "type": "function"
    }
  ],
  "bytecode": "0x608060405234801561001057600080fd5b50611374806100206000396000f3fe608060405234801561001057600080fd5b506004361061004c5760003560e01c8063195812d0146100515780631ea6ddea146100815780637b05e1871461009f57806386c4953d146100d4575b600080fd5b61006b60048036036100669190810190610f3a565b610104565b6040516100789190611252565b60405180910390f35b6100896103bc565b6040516100969190611252565b60405180910390f35b6100b960048036036100b4919081019061103f565b6103c8565b6040516100cb969594939291906111ac565b60405180910390f35b6100ee60048036036100e9919081019061103f565b610729565b6040516100fb9190611230565b60405180910390f35b600080600160006040518060c001604052808f8f8080601f016020809104026020016040519081016040528093929190818152602001838380828437600081840152601f19601f8201169050808301925050505050505081526020018d8d8080601f016020809104026020016040519081016040528093929190818152602001838380828437600081840152601f19601f8201169050808301925050505050505081526020018b8b8080601f016020809104026020016040519081016040528093929190818152602001838380828437600081840152601f19601f82011690508083019250505050505050815260200189898080601f016020809104026020016040519081016040528093929190818152602001838380828437600081840152601f19601f82011690508083019250505050505050815260200187878080601f016020809104026020016040519081016040528093929190818152602001838380828437600081840152601f19601f8201169050808301925050505050505081526020013373ffffffffffffffffffffffffffffffffffffffff168152509080600181540180825580915050906001820390600052602060002090600602016000909192909190915060008201518160000190805190602001906102e9929190610dea565b506020820151816001019080519060200190610306929190610dea565b506040820151816002019080519060200190610323929190610dea565b506060820151816003019080519060200190610340929190610dea565b50608082015181600401908051906020019061035d929190610dea565b5060a08201518160050160006101000a81548173ffffffffffffffffffffffffffffffffffffffff021916908373ffffffffffffffffffffffffffffffffffffffff1602179055505050039050809150509a9950505050505050505050565b60008080549050905090565b600081815481106103d557fe5b9060005260206000209060060201600091509050806000018054600181600116156101000203166002900480601f0160208091040260200160405190810160405280929190818152602001828054600181600116156101000203166002900480156104815780601f1061045657610100808354040283529160200191610481565b820191906000526020600020905b81548152906001019060200180831161046457829003601f168201915b505050505090806001018054600181600116156101000203166002900480601f01602080910402602001604051908101604052809291908181526020018280546001816001161561010002031660029004801561051f5780601f106104f45761010080835404028352916020019161051f565b820191906000526020600020905b81548152906001019060200180831161050257829003601f168201915b505050505090806002018054600181600116156101000203166002900480601f0160208091040260200160405190810160405280929190818152602001828054600181600116156101000203166002900480156105bd5780601f10610592576101008083540402835291602001916105bd565b820191906000526020600020905b8154815290600101906020018083116105a057829003601f168201915b505050505090806003018054600181600116156101000203166002900480601f01602080910402602001604051908101604052809291908181526020018280546001816001161561010002031660029004801561065b5780601f106106305761010080835404028352916020019161065b565b820191906000526020600020905b81548152906001019060200180831161063e57829003601f168201915b505050505090806004018054600181600116156101000203166002900480601f0160208091040260200160405190810160405280929190818152602001828054600181600116156101000203166002900480156106f95780601f106106ce576101008083540402835291602001916106f9565b820191906000526020600020905b8154815290600101906020018083116106dc57829003601f168201915b5050505050908060050160009054906101000a900473ffffffffffffffffffffffffffffffffffffffff16905086565b610731610e6a565b6000828154811061073e57fe5b90600052602060002090600602016040518060c0016040529081600082018054600181600116156101000203166002900480601f0160208091040260200160405190810160405280929190818152602001828054600181600116156101000203166002900480156107f05780601f106107c5576101008083540402835291602001916107f0565b820191906000526020600020905b8154815290600101906020018083116107d357829003601f168201915b50505050508152602001600182018054600181600116156101000203166002900480601f0160208091040260200160405190810160405280929190818152602001828054600181600116156101000203166002900480156108925780601f1061086757610100808354040283529160200191610892565b820191906000526020600020905b81548152906001019060200180831161087557829003601f168201915b50505050508152602001600282018054600181600116156101000203166002900480601f0160208091040260200160405190810160405280929190818152602001828054600181600116156101000203166002900480156109345780601f1061090957610100808354040283529160200191610934565b820191906000526020600020905b81548152906001019060200180831161091757829003601f168201915b50505050508152602001600382018054600181600116156101000203166002900480601f0160208091040260200160405190810160405280929190818152602001828054600181600116156101000203166002900480156109d65780601f106109ab576101008083540402835291602001916109d6565b820191906000526020600020905b8154815290600101906020018083116109b957829003601f168201915b50505050508152602001600482018054600181600116156101000203166002900480601f016020809104026020016040519081016040528092919081815260200182805460018160011615610100020316600290048015610a785780601f10610a4d57610100808354040283529160200191610a78565b820191906000526020600020905b815481529060010190602001808311610a5b57829003601f168201915b505050505081526020016005820160009054906101000a900473ffffffffffffffffffffffffffffffffffffffff1673ffffffffffffffffffffffffffffffffffffffff1673ffffffffffffffffffffffffffffffffffffffff16815250509050610de5565b815481529060010190602001808311610ade57829003601f1682019150505050508152602001600182018054600181600116156101000203166002900480601f016020809104026020016040519081016040528092919081815260200182805460018160011615610100020316600290048015610b9c5780601f10610b7157610100808354040283529160200191610b9c565b820191906000526020600020905b815481529060010190602001808311610b7f57829003601f168201915b50505050508152602001600282018054600181600116156101000203166002900480601f016020809104026020016040519081016040528092919081815260200182805460018160011615610100020316600290048015610c3e5780601f10610c1357610100808354040283529160200191610c3e565b820191906000526020600020905b815481529060010190602001808311610c2157829003601f168201915b50505050508152602001600382018054600181600116156101000203166002900480601f016020809104026020016040519081016040528092919081815260200182805460018160011615610100020316600290048015610ce05780601f10610cb557610100808354040283529160200191610ce0565b820191906000526020600020905b815481529060010190602001808311610cc357829003601f168201915b50505050508152602001600482018054600181600116156101000203166002900480601f016020809104026020016040519081016040528092919081815260200182805460018160011615610100020316600290048015610d825780601f10610d5757610100808354040283529160200191610d82565b820191906000526020600020905b815481529060010190602001808311610d6557829003601f168201915b505050505081526020016005820160009054906101000a900473ffffffffffffffffffffffffffffffffffffffff1673ffffffffffffffffffffffffffffffffffffffff1673ffffffffffffffffffffffffffffffffffffffff16815250509150505b919050565b828054600181600116156101000203166002900490600052602060002090601f016020900481019282601f10610e2b57805160ff1916838001178555610e59565b82800160010185558215610e59579182015b82811115610e58578251825591602001919060010190610e3d565b5b509050610e669190610eb6565b5090565b6040518060c001604052806060815260200160608152602001606081526020016060815260200160608152602001600073ffffffffffffffffffffffffffffffffffffffff1681525090565b610ed891905b80821115610ed4576000816000905550600101610ebc565b5090565b90565b60008083601f840112610eed57600080fd5b8235905067ffffffffffffffff811115610f0657600080fd5b602083019150836001820283011115610f1e57600080fd5b9250929050565b600081359050610f348161131a565b92915050565b60008060008060008060008060008060a08b8d031215610f5957600080fd5b60008b013567ffffffffffffffff811115610f7357600080fd5b610f7f8d828e01610edb565b9a509a505060208b013567ffffffffffffffff811115610f9e57600080fd5b610faa8d828e01610edb565b985098505060408b013567ffffffffffffffff811115610fc957600080fd5b610fd58d828e01610edb565b965096505060608b013567ffffffffffffffff811115610ff457600080fd5b6110008d828e01610edb565b945094505060808b013567ffffffffffffffff81111561101f57600080fd5b61102b8d828e01610edb565b92509250509295989b9194979a5092959850565b60006020828403121561105157600080fd5b600061105f84828501610f25565b91505092915050565b6110718161129a565b82525050565b6110808161129a565b82525050565b60006110918261126d565b61109b8185611278565b93506110ab8185602086016112d6565b6110b481611309565b840191505092915050565b60006110ca8261126d565b6110d48185611289565b93506110e48185602086016112d6565b6110ed81611309565b840191505092915050565b600060c08301600083015184820360008601526111158282611086565b9150506020830151848203602086015261112f8282611086565b915050604083015184820360408601526111498282611086565b915050606083015184820360608601526111638282611086565b9150506080830151848203608086015261117d8282611086565b91505060a083015161119260a0860182611068565b508091505092915050565b6111a6816112cc565b82525050565b600060c08201905081810360008301526111c681896110bf565b905081810360208301526111da81886110bf565b905081810360408301526111ee81876110bf565b9050818103606083015261120281866110bf565b9050818103608083015261121681856110bf565b905061122560a0830184611077565b979650505050505050565b6000602082019050818103600083015261124a81846110f8565b905092915050565b6000602082019050611267600083018461119d565b92915050565b600081519050919050565b600082825260208201905092915050565b600082825260208201905092915050565b60006112a5826112ac565b9050919050565b600073ffffffffffffffffffffffffffffffffffffffff82169050919050565b6000819050919050565b60005b838110156112f45780820151818401526020810190506112d9565b83811115611303576000848401525b50505050565b6000601f19601f8301169050919050565b611323816112cc565b811461132e57600080fd5b5056fea365627a7a72315820e35da925f2b563bf557731a93239fe53e48f602ae6d280de252de4f853d24ac26c6578706572696d656e74616cf564736f6c63430005100040",
  "source": "pragma solidity ^0.5.0;\r\npragma experimental ABIEncoderV2;\r\n\r\ncontract covidVaccineRegister {\r\n\r\n  // define the struct VaccinationRecord\r\n  struct VaccinationRecord {\r\n    string name;\r\n    string surname;\r\n    string vaccinationDate;\r\n    string vaccinationName;\r\n    string vaccinationPlace;\r\n    address added_by;\r\n  }\r\n\r\n  // define the array of users\r\n  VaccinationRecord[] public vaccinationRecords;\r\n\r\n  function createVaccinationRecord(string calldata _name, string calldata _surname, string calldata _vaccinationDate, string calldata _vaccinationName, string calldata _vaccinationPlace) external returns(uint){\r\n    // get an instance of a VaccinationRecord using the input variables and push into the array of vaccinationRecords, returns the id\r\n    uint id = vaccinationRecords.push( VaccinationRecord(_name, _surname, _vaccinationDate, _vaccinationName, _vaccinationPlace, msg.sender)) - 1;\r\n    \r\n    // return the user id\r\n    return id;\r\n  }\r\n\r\n  function getNumberOfVaccinations() external view returns(uint) {\r\n    // return the length of the vaccinationRecords array\r\n    return vaccinationRecords.length;\r\n  }\r\n\r\n  function getVaccinationRecord(uint index) external view returns(VaccinationRecord memory) {\r\n\r\n    // return a vaccination record from an array\r\n\r\n     return vaccinationRecords[index];\r\n\r\nuint len = vaccinationRecords.length;\r\n\r\n     if(index>0 && index<len)\r\n\r\n     {\r\n\r\n         return vaccinationRecords[index];\r\n\r\n     }\r\n\r\n     revert(\"Invalid index\");\r\n  }\r\n} ",
  "sourcePath": "C:/Users/Mutale Mwila/Documents/GitHub/Mutale29-Covid-Vaccine-Register/contracts/cvt.sol",
  "compiler": {
    "name": "solc",
    "version": "0.5.16+commit.9c3226ce.Emscripten.clang"
  },
  "schemaVersion": "3.3.4",
  "updatedAt": "2021-05-21T09:12:29.150Z",
  "devdoc": {
    "methods": {}
  },
  "userdoc": {
    "methods": {}
  }
}